:04000000C8EF3FF016
:107F90000001CBEF3FF0000E936E8A80D7EC3FF0EC
:107FA0008A90D7EC3FF0CDEF3FF000EF00F0000EED
:107FB000026E000E016E000E046E000E036E034A88
:107FC000042A04BEEDEF3FF0880E035C130E045844
:107FD000D8A0EDEF3FF0EFEF3FF0DFEF3FF0014AC9
:107FE000022A02BEFDEF3FF0025009E1050E015CDE
:107FF000D8A0FDEF3FF0FFEF3FF0DBEF3FF01200C6
:020000040020DA
:08000000FFFFFFFFFFFFFFFF00
:020000040030CA
:0E0000000008181EFF81A0FF0FC00FE00F4088
:00000001FF
