:0400000007EF00F016
:10000800088209ED00F0ABEF00F006009EA00FEFAC
:1000180000F011EF00F049EF00F0000ECF6E000E77
:10002800CE6E1F0E06180710D8A41DEF00F01FEFA4
:1000380000F046EF00F0000E076E000E066E8AB262
:1000480028EF00F02BEF00F0010E2CEF00F0000E6F
:10005800FF0A016E01468A500118FD0B01188A6ECD
:100068008AB439EF00F03CEF00F0010E3DEF00F0EC
:10007800000EFF0A016E014601468A500118FB0B6B
:1000880001188A6E064A072A9E909EA24EEF00F03B
:1000980050EF00F051EF00F09E9208921100000E10
:1000A800036E000E026E000E056E000E046E044A0A
:1000B800052A05BE69EF00F0055009E1030E045C4E
:1000C800D8A069EF00F06BEF00F05BEF00F0024A98
:1000D800032A03BE79EF00F0880E025C130E035862
:1000E800D8A079EF00F07BEF00F057EF00F0120096
:1000F800720ED36E9392939493988FEC00F0A2ECC7
:1001080000F08A8853EC00F08A9853EC00F085EFF1
:1001180000F007EF00F0F28EF28C9D809E90800E2A
:10012800CD6ECD80CDB09BEF00F09EEF00F0010EBC
:100138009FEF00F0000ECE6ECF6A1200040ECA6E5A
:100148007C0ECB6E000ECC6ECA849D821200076AAC
:0C015800066A0890089200017CEF00F09D
:020000040020DA
:08000000FFFFFFFFFFFFFFFF00
:020000040030CA
:0E00000000051F1FFF8385FF0FC00FE00F409C
:00000001FF
